:020000040800F2
:100000007C0C0020010400085D0400088F15000826
:100010005D0400085D0400085D04000800000000A5
:100020000000000000000000000000005D04000867
:100030005D040008000000005D0400085D04000885
:100040005D0400085D0400085D0400085D0400080C
:100050005D0400085D0400085D0400085D040008FC
:100060005D0400085D0400085D0400085D040008EC
:100070005D0400085D0400085D0400085D040008DC
:100080005D0400085D0400085D0400085D040008CC
:100090005D0400085D0400085D0400085D040008BC
:1000A0005D0400085D0400085D0400085D040008AC
:1000B0005D0400085D0400085D0400085D0400089C
:1000C0005D0400085D0400085D0400085D0400088C
:1000D0005D0400085D0400085D0400085D0400087C
:1000E0005D0400085D0400085D0400085D0400086C
:1000F0005D0400085D0400085D0400085D0400085C
:100100005D0400085D0400085D0400085D0400084B
:100110005D0400085D0400085D0400085D0400083B
:100120005D0400085D0400085D0400085D0400082B
:100130005D0400085D0400085D0400085D0400081B
:100140005D0400085D0400085D0400085D0400080B
:100150005D0400085D0400085D0400085D040008FB
:100160005D0400085D0400085D0400085D040008EB
:100170005D0400085D0400085D0400085D040008DB
:100180005D0400085D04000880B582B000AF7860AF
:10019000154B1B785A1CD1B2134A11701A467B6852
:1001A000D9B2124B9954104B1B781A460F4B0021B1
:1001B00099540D4B1B7801330F2B05D87B680A2B04
:1001C00002D07B68002B0CD1074B00221A70074B22
:1001D00004201946002201F0D1F90346002B00D07B
:1001E00000BF0837BD4680BD5804002048040020E9
:1001F00080B58AB000AF7860396000237B6200234D
:100200003B620023FB610023BB617B681B8A9BB2BE
:100210007B627B6A23F440537B623B68DB881A462F
:100220007B6A13437B627B6A9AB27B681A827B6823
:100230009B899BB27B627B6A23F4B05323F00C034F
:100240007B623B689A883B681B8913439AB23B6880
:100250005B8913439BB21A467B6A13437B627B6ABA
:100260009AB27B689A817B689B8A9BB27B627B6A2D
:1002700023F440737B623B689B891A467B6A134375
:100280007B627B6A9AB27B689A8207F10803184600
:1002900000F044FC7B68314A934203D07B68304ACB
:1002A000934202D17B693B6201E03B693B627B6820
:1002B0009B899BB29BB21BB2002B0CDA3A6A1346A5
:1002C0009B0013449A001A443B681B685B00B2FB16
:1002D000F3F3FB610BE03A6A13469B0013449A0068
:1002E0001A443B681B689B00B2FBF3F3FB61FB699C
:1002F0001C4AA2FB03235B091B017B627B6A1B096F
:10030000642202FB03F3FA69D31ABB617B689B8901
:100310009BB29BB21BB2002B0CDABB69DB00323301
:10032000104AA2FB03235B0903F007037A6A134315
:100330007B620BE0BB691B0132330A4AA2FB032339
:100340005B0903F00F037A6A13437B627B6A9AB2FC
:100350007B681A812837BD4680BD00BF0010014070
:10036000001401401F85EB5180B483B000AF78606A
:100370000B46FB70FB78002B08D07B689B899BB2F7
:1003800043F400539AB27B689A8107E07B689B89AB
:100390009BB223F400539AB27B689A810C37BD4616
:1003A0005DF8047B704700BF80B483B000AF786015
:1003B0007B689B889BB2C3F308039BB218460C373B
:1003C000BD465DF8047B704780B485B000AF7860AF
:1003D0000B467B800023FB737B681B889AB27B886B
:1003E00013409BB2002B02D00123FB7301E00023DA
:1003F000FB73FB7B18461437BD465DF8047B7047E2
:1004000080B582B000AF104B7B60104B3B6007E0C3
:100410003B681A1D3A607A68111D796012681A608B
:100420003B680B4A9342F3D30A480B494FF0000252
:100430008842B8BF40F8042BFADB01F0B3F800F0B3
:10044000BBFA0837BD4680BD781A000800000020BE
:1004500048040020480400207C04002080B400AF41
:10046000FEE700BF80B584B000AF0420012100F09A
:10047000FFFB4FF48020012100F018FC20480A21E6
:10048000072201F033F81F4B00229A711D4B012205
:10049000DA711C4B02221A711A4B4FF480621A60F7
:1004A000184B02225A711648164900F075FF14487D
:1004B0000B21072201F01AF8124B02221A71114B7C
:1004C0004FF400621A600E480E4900F065FF4FF4C9
:1004D00016533B600023BB800023FB8000233B813D
:1004E0000023BB810C237B813B4607481946FFF75D
:1004F0007FFE05480121FFF737FF1037BD4680BD5D
:1005000000080240740400200048004080B582B01A
:1005100000AF00237B6000BF07482021FFF754FF96
:100520000346002BF8D00448FFF73EFF0346DBB23A
:1005300018460837BD4680BD0048004080B500AF72
:1005400004485C2100F0B6FF0248A02100F0C0FF83
:1005500080BD00BF0000024080B500AF0448AC2160
:1005600000F0A8FF0248502100F0B2FF80BD00BF9C
:100570000000024080B500AF0448902100F09AFFCF
:100580000248602100F0A4FF80BD00BF00000240CF
:1005900080B500AF0448602100F08CFF0248902134
:1005A00000F096FF80BD00BF0000024080B500AFA4
:1005B0000248F02100F08CFF80BD00BF0000024027
:1005C00080B584B000AF0120012100F06FFBC8238B
:1005D000BB800023FB8041F26803BB600023BB812A
:1005E0000023BB733B1D4FF08040194601F080F89B
:1005F0004FF08040012101F0E5F81037BD4680BD85
:1006000080B586B000AF6023BB800023FB60012370
:10061000FB8000233B823B1D4FF08040194601F0D8
:1006200077F94FF08040082101F0F4F91837BD4602
:1006300080BD00BF80B586B000AF3B1D00221A60B0
:10064000043300221A60043300221A6004330022AB
:100650001A60043300221A6004336023BB80002335
:10066000FB600123FB8000233B823B1D4FF0804059
:10067000194601F0C7F84FF08040082101F0AEF9AB
:100680001837BD4680BD00BF80B500AF01200121F5
:1006900000F0EEFA0E480321012200F027FF0C487B
:1006A0000221012200F022FF0A4B0C221A60094BA2
:1006B00000229A71074B0022DA71064B02221A714E
:1006C000044B03225A710248024900F065FE80BDC6
:1006D000000002407404002080B500AFFFF770FFF7
:1006E000FFF78EFFFFF7A6FFFFF7CEFF80BD00BF2D
:1006F00080B582B000AF78607B680B2B08D1454B8A
:1007000000221A60444B1B68184600F089F87DE00F
:100710007B680C2B08D13F4B54221A603E4B1B6860
:10072000184600F07DF871E07B680D2B08D1394B3D
:10073000A8221A60384B1B68184600F071F865E073
:100740007B680E2B08D1334BFC221A60324B1B689E
:10075000184600F065F859E07B680F2B09D12D4B46
:100760004FF4A8721A602C4B1B68184600F058F81A
:100770004CE07B68102B0DD1284B4FF4D2721A60DD
:10078000264B1B68234A1360234B1B68184600F056
:1007900047F83BE07B68112B09D1204B4FF4A8723E
:1007A0001A601D4B1B68184600F03AF82EE07B6873
:1007B000122B08D1194BFC221A60174B1B681846E4
:1007C00000F02EF822E07B68132B08D1134BA822EF
:1007D0001A60114B1B68184600F022F816E07B687F
:1007E000142B08D10D4B54221A600B4B1B68184672
:1007F00000F016F80AE07B68152B07D1074B0022A2
:100800001A60054B1B68184600F00AF80837BD4609
:1008100080BD00BF0000002068040020040000200C
:1008200080B483B000AF7860604A7B6813607B68F7
:100830000A2B0AD14FF080435D4A12681A644FF0C8
:1008400080435C4A1268DA63AAE07B68162B0CD1FD
:100850004FF08042564B1B685B0013644FF08042A0
:10086000544B1B685B00D3639AE07B681E2B10D14E
:100870004FF080414E4B1A6813465B0013440B64E3
:100880004FF080414B4B1A6813465B001344CB6317
:1008900086E07B68282B0CD14FF08042444B1B68CC
:1008A0009B0013644FF08042424B1B689B00D36354
:1008B00076E07B68322B10D14FF080413C4B1A68B8
:1008C00013469B0013440B644FF08041394B1A6868
:1008D00013469B001344CB6362E07B683C2B12D130
:1008E0004FF08041324B1A6813465B0013445B00A3
:1008F0000B644FF080412F4B1A6813465B00134482
:100900005B00CB634CE07B68462B10D14FF08041FD
:10091000274B1A681346DB009B1A0B644FF080418B
:10092000244B1A681346DB009B1ACB6338E07B68C4
:10093000502B0CD14FF080421D4B1B68DB00136421
:100940004FF080421B4B1B68DB00D36328E07B68C1
:100950005A2B10D14FF08041154B1A681346DB001B
:1009600013440B644FF08041124B1A681346DB00AE
:100970001344CB6314E07B68642B11D14FF08041AA
:100980000B4B1A6813469B0013445B000B644FF03B
:100990008041084B1A6813469B0013445B00CB63ED
:1009A0000C37BD465DF8047B704700BF680400202B
:1009B000000000200400002080B582B000AFFFF7E7
:1009C0008BFEFFF74FFD0820012100F051F94E4B3F
:1009D0004FF470421A604C4B01221A714A4B0322A9
:1009E0005A71494B00229A71474B0022DA714748ED
:1009F000454900F0D1FC0120012100F039F9424BBA
:100A0000F0221A60404B01221A713F4B03225A71A7
:100A10003D4B00229A713C4B0022DA713C483A4926
:100A200000F0BAFCFFF7C2FD00237B600023FB70DF
:100A3000FFF76CFD0346FB70FB783648194600F063
:100A400053FCFB78012B0CD1FFF794FD2F484FF49A
:100A5000004100F02FFD2D484FF4E04100F038FD3B
:100A600049E0FB78022B0CD1FFF776FD27484FF4C5
:100A7000805100F01FFD25484FF4604100F028FD33
:100A800039E0FB78032B0CD1FFF782FD1F484FF4B0
:100A9000005100F00FFD1D484FF4504100F018FDCB
:100AA00029E0FB78042B0CD1FFF748FD17484FF4E1
:100AB000804100F0FFFC15484FF4304100F008FD84
:100AC00019E0FB78052B07D1FFF770FD0F484FF4B5
:100AD000704100F0FDFC0EE0FB780A2B07D9FB7893
:100AE000152B04D8FB781846FFF702FE03E0FB78CD
:100AF0001846FFF795FE08482021FFF765FC0346DE
:100B0000002B95D094E700BF74040020000C024035
:100B100000000240501A00080048004080B489B02C
:100B200000AF78600023BB6100237B610023FB6181
:100B300002233B610023FB600223BB60484B9B68A0
:100B400003F00C03BB61BB69042B07D0082B09D051
:100B5000002B3FD17B68434A1A603FE07B68424AE2
:100B60001A603BE03E4B5B6803F480039B0DFB6027
:100B70003B4B5B6803F03F03BB60FB68002B0DD071
:100B8000394ABB68B2FBF3F2354B596847F6C0737C
:100B90000B409B0903FB02F3FB610CE0314ABB688D
:100BA000B2FBF3F22E4B596847F6C0730B409B091A
:100BB00003FB02F3FB612A4B5B6803F440331B0C1D
:100BC00001335B003B61FA693B69B2FBF3F27B687E
:100BD0001A6003E07B68234A1A6000BF204B9B68C1
:100BE00003F0F003BB61BB691B09BB611F4ABB6912
:100BF00013441B78DBB27B617B681A687B69DA403F
:100C00007B685A60164B9B6803F4E053BB61BB6979
:100C10009B0ABB61154ABB6913441B78DBB27B613D
:100C20007B685A687B69DA407B689A600C4B9B68EA
:100C300003F46043BB61BB695B0BBB610B4ABB69DF
:100C400013441B78DBB27B617B685A687B69DA40AE
:100C50007B68DA602437BD465DF8047B704700BFCF
:100C6000003802400024F40000127A00080000203E
:100C700080B483B000AF78600B46FB70FB78002B2C
:100C800006D00949084B1A6B7B6813430B6306E0D7
:100C90000549054B1A6B7B68DB4313400B630C372C
:100CA000BD465DF8047B70470038024080B483B0D5
:100CB00000AF78600B46FB70FB78002B06D009492B
:100CC000084B1A6C7B6813430B6406E00549054B1F
:100CD0001A6C7B68DB4313400B640C37BD465DF830
:100CE000047B70470038024080B582B000AF0346F5
:100CF000FB71FB791846FFF747FA0837BD4680BD00
:100D000080B483B000AF78600B46FB707B68FA78E4
:100D10001A70012318460C37BD465DF8047B7047F6
:100D200080B485B000AF786039600023FB600AE0D2
:100D30007B685A1C7A603A68511C396012781A70C4
:100D4000FB680133FB603B681B78002BF0D1FB682C
:100D500018461437BD465DF8047B704780B586B0F1
:100D600000AFF8607A603B600B46FB7200237B614A
:100D70007B68013B7B603B68092B10D93B681E4AAE
:100D8000A2FB0323DB08FA7AF86811467A68FFF7BA
:100D9000E5FF78617B69FA681344FB6011E00DE0C0
:100DA000FB7AF8681946FFF7ABFFFB680133FB607D
:100DB0007B6901337B617B68013B7B607B68002B37
:100DC000EEDC39680C4BA3FB0123DA0813469B00C9
:100DD00013445B00CA1AD3B23033DBB2F868194649
:100DE000FFF78EFF02467B6913447B617B691846DF
:100DF0001837BD4680BD00BFCDCCCCCC90B587B0F8
:100E000000AFF8607A603B600B46FB7200237B61A9
:100E10003B68002B03DA3B685B423B6101E03B68C7
:100E20003B617B68013B7B603B69092B25D93B68B3
:100E3000002B0FDA3B69314AA2FB0323DB085B423C
:100E40001C46FB7AF86819467A682346FFF7D6FFF6
:100E500078610DE03B69294AA2FB0323DB081C46AD
:100E6000FB7AF86819467A682346FFF7C7FF78616E
:100E70007B69FA681344FB6025E03B68002B02DACB
:100E80007B68013B7B600DE0FB7AF8681946FFF751
:100E900037FFFB680133FB607B6901337B617B6853
:100EA000013B7B607B68002BEEDC3B68002B0ADAA1
:100EB000F8682D21FFF724FF02467B6913447B610C
:100EC000FB680133FB6039690C4BA3FB0123DA0893
:100ED00013469B0013445B00CA1AD3B23033DBB213
:100EE000F8681946FFF70CFF02467B6913447B61E3
:100EF0007B6918461C37BD4690BD00BFCDCCCCCC1D
:100F000090B589B002AFF8607A601A460B46FB7262
:100F10001346BB7200237B617B68013B7B60BB6A2D
:100F20001B09002B13D0BB6A1B09FA7ABC7A009309
:100F3000F86811467A682346FFF7E2FF02467B69AC
:100F400013447B617B69FA681344FB6011E00DE098
:100F5000FB7AF8681946FFF7D3FEFB680133FB60A4
:100F60007B6901337B617B68013B7B607B68002B85
:100F7000EEDCBB6A03F00F03092B0BD8BB6ADBB2B4
:100F800003F00F03DBB23033DBB2F8681946FFF72A
:100F9000B7FE19E0BB7A002B0BD0BB6ADBB203F0C3
:100FA0000F03DBB23733DBB2F8681946FFF7A8FE50
:100FB0000AE0BB6ADBB203F00F03DBB25733DBB2EC
:100FC000F8681946FFF79CFE7B6901337B617B69FA
:100FD00018461C37BD4690BD90B58BB002AFF86087
:100FE000B9607A603B600023BB6100237B61FB68D2
:100FF000002B02D0FB6800221A70FCE07B681B7893
:10100000252B0BD0FB685A1CFA607A68511C79605A
:1010100012781A707B6901337B61ECE07B680133E5
:101020001B78252B0BD1FB685A1CFA6025221A70FD
:101030007B6802337B607B6901337B61DBE02023CB
:10104000FB770023BB777B6801337B607B681B7871
:10105000302B04D13023FB777B6801337B600EE0BB
:10106000BB7F1A46920013445B00DAB27B681B78A0
:101070001344DBB2303BBB777B6801337B607B681A
:101080001B782F2B03D97B681B78392BE8D9BA7FC3
:101090007B6913441A46BB689A4205D9BB68DAB229
:1010A0007B69DBB2D31ABB777B681B78583B202B5C
:1010B00000F2938001A252F823F000BF93110008C0
:1010C000DB110008DB110008DB110008DB11000850
:1010D000DB110008DB110008DB110008DB11000840
:1010E000DB110008DB110008C511000841110008E0
:1010F000DB110008DB110008DB110008DB11000820
:1011000041110008DB110008DB110008DB110008A9
:10111000DB110008DB110008DB110008DB110008FF
:10112000DB110008DB110008B1110008DB11000819
:101130005B110008DB110008DB11000875110008C5
:10114000BC7F3B681A1D3A601B68FA7FF86811463D
:101150002246FFF753FEB86142E0BC7F3B681A1D90
:101160003A601B68FA7FF86811462246FFF7F6FDE1
:10117000B86135E0BC7F3B681A1D3A601B68FA7F96
:101180000093F868114622460023FFF7B9FEB861C4
:1011900026E0BC7F3B681A1D3A601B68FA7F00930B
:1011A000F868114622460123FFF7AAFEB86117E04E
:1011B0003B681A1D3A601B68F8681946FFF7B0FDD6
:1011C000B8610DE03B681A1D3A601B68DBB2F86835
:1011D0001946FFF795FDB86102E04FF0FF3325E0B7
:1011E0007B6801337B60BB69FA681344FB607A69F2
:1011F000BB6913447B617B681B78002B04D07A6940
:10120000BB689A42FFF4FAAE7A69BB689A4203D28D
:10121000FB6800221A7008E0FB68013BFB60FB687A
:1012200000221A707B69013B7B617B691846243779
:10123000BD4690BD80B584B000AFF860B9607A60FB
:10124000F8686421BA687B68FFF7C6FE0346184653
:101250001037BD4680BD00BFB0B5A6B000AFF86086
:10126000B9607A60144B07F110041D460FCD0FC40E
:101270000FCD0FC42B68236007F134031846B968FB
:101280007A68FFF7D7FF0346632B09DD0B4B1B681A
:10129000DB6807F110021046194600F059F8FEE726
:1012A00007F134031846F96800F052F8034618466F
:1012B0009837BD46B0BD00BF541A00084004002056
:1012C00080B582B000AF78603960064B1B689B68C0
:1012D000184679683A68FFF7BFFF03461846083793
:1012E000BD4680BD400400200FB480B582B000AF81
:1012F00007F114033B6038693968FFF7E1FF786054
:101300007B6818460837BD46BDE8804004B070478A
:1013100080B582B000AF786039600C4B1B689A686A
:101320003B689A4205D0094B1B68DA683B689A42D1
:1013300006D17B68DBB21846FFF7D6FC7B6801E07C
:101340004FF0FF3318460837BD4680BD40040020EB
:1013500080B584B000AF786039600023FB6012E094
:101360007B681B7818463968FFF7D2FF0346B3F154
:10137000FF3F02D14FF0FF330AE0FB680133FB600F
:101380007B6801337B607B681B78002BE8D1FB68AE
:1013900018461037BD4680BD80B487B000AF786076
:1013A000396000237B6100233B610023FB60002345
:1013B0007B6176E07B69012202FA03F33B613B68C3
:1013C0001A683B691340FB60FA683B699A4265D131
:1013D0007B681A687B695B00194603238B40DB43FB
:1013E0001A407B681A607B681A683B681B7919464B
:1013F0007B695B0001FA03F31A437B681A603B6860
:101400001B79012B03D03B681B79022B2ED17B6803
:101410009A687B695B00194603238B40DB431A40C3
:101420007B689A607B689A683B685B7919467B6940
:101430005B0001FA03F31A437B689A607B685A6881
:101440007B699BB2194601238B40DB431A407B68C2
:101450005A607B685B683A68927911467A6992B201
:1014600001FA02F292B21A437B685A607B68DA682A
:101470007B699BB25B00032101FA03F3DB431A4053
:101480007B68DA607B68DA683B68DB7919467B69E0
:101490005B0001FA03F31A437B68DA607B6901336E
:1014A0007B617B690F2B85D91C37BD465DF8047BBA
:1014B000704700BF80B483B000AF78600B467B807C
:1014C0007B687A881A830C37BD465DF8047B7047C9
:1014D00080B483B000AF78600B467B807B687A88ED
:1014E0005A830C37BD465DF8047B704780B485B0E5
:1014F00000AF78600B467B8013467B700023FB6057
:101500000023BB607B787A8802F007029200934048
:10151000FB607B88DB089BB218467B88DB089BB2AC
:101520001A467B68083253F822207B8803F00703B1
:101530009B0019460F238B40DB4302EA03017B68C3
:1015400000F1080243F822107B88DB089BB21A46A0
:101550007B68083253F82220FB681343BB607B880A
:10156000DB089BB21A467B680832B96843F8221040
:101570001437BD465DF8047B704700BFABBE01E089
:1015800000207047002A00D01060012070470698A4
:101590000188034A914202D1043006907047FEE769
:1015A000ABBE000080B500AF114A114B1B6843F081
:1015B000010313600E4B00229A600D4A0C4B1B680E
:1015C00023F0847323F480331360094B094A5A6073
:1015D000074A074B1B6823F480231360044B002247
:1015E000DA6000F00BF8044B4FF000629A6080BDA7
:1015F000003802401030002400ED00E080B483B0D9
:1016000000AF00237B6000233B60354A344B1B68EE
:1016100043F480331360324B1B6803F400333B60A8
:101620007B6801337B603B68002B03D17B68B3F59B
:10163000A06FF0D12A4B1B6803F40033002B02D0BB
:1016400001233B6001E000233B603B68012B42D15A
:10165000234A234B1B6C43F080531364214A214BD4
:101660001B6843F4804313601D4A1D4B9B689360C5
:101670001B4A1B4B9B6843F400439360184A184B6A
:101680009B6843F4A0539360154B174A5A60144A61
:10169000134B1B6843F08073136000BF104B1B6833
:1016A00003F00073002BF9D0104B40F205621A6072
:1016B0000B4A0B4B9B6823F003039360084A084BCB
:1016C0009B6843F00203936000BF054B9B6803F0E7
:1016D0000C03082BF9D10C37BD465DF8047B70472D
:1016E000003802400070004019544007003C02409E
:1016F00080B485B000AF786039600023FB817B68DF
:101700001B88FB817B68284A934213D07B68274A59
:1017100093420FD07B68B3F1804F0BD07B68244A93
:10172000934207D07B68234A934203D07B68224AC6
:10173000934208D1FB8923F07003FB813B685A88F0
:10174000FB891343FB817B681C4A93420CD07B6866
:101750001B4A934208D0FB8923F44073FB813B680A
:101760001A89FB891343FB817B68FA891A803B68DD
:101770005A687B68DA623B681A887B681A857B68DE
:10178000094A934203D07B68084A934204D13B68DC
:101790009B7A9AB27B681A867B6801229A821437F8
:1017A000BD465DF8047B7047000001400004014025
:1017B0000004004000080040000C00400010004001
:1017C0000014004080B483B000AF78600B46FB701B
:1017D000FB78002B08D07B681B889BB243F0010389
:1017E0009AB27B681A8007E07B681B889BB223F063
:1017F00001039AB27B681A800C37BD465DF8047B02
:10180000704700BF80B485B000AF786039600023B6
:101810007B810023FB810023BB817B681B8C9BB2F7
:1018200023F480739AB27B681A847B681B8CFB81DB
:101830007B689B88BB817B689B8B7B817B8923F04A
:1018400070037B817B8923F003037B813B681A88CB
:101850007B8913437B81FB8923F40073FB813B6805
:101860009B891B029AB2FB891343FB813B685B880F
:101870001B029AB2FB891343FB817B68224A934285
:1018800003D07B68214A93422BD1FB8923F4006368
:10189000FB813B68DB891B029AB2FB891343FB8106
:1018A000FB8923F48063FB813B689B881B029AB20F
:1018B000FB891343FB81BB8923F48053BB81BB8924
:1018C00023F40053BB813B681B8A1B019AB2BB897E
:1018D0001343BB813B685B8A1B019AB2BB891343EC
:1018E000BB817B68BA899A807B687A899A833B68D6
:1018F0009A687B68DA637B68FA891A841437BD4674
:101900005DF8047B704700BF000001400004014007
:1019100080B485B000AF786039600023BB810023BC
:101920007B810023FB817B681B8C9BB223F480535B
:101930009AB27B681A847B681B8C7B817B689B884E
:10194000FB817B689B8BBB81BB8923F4E043BB811C
:10195000BB8923F44073BB813B681B881B029AB28E
:10196000BB891343BB817B8923F400537B813B6894
:101970009B891B039AB27B8913437B813B685B88FD
:101980001B039AB27B8913437B817B68114A934284
:1019900003D07B68104A93420AD1FB8923F4804329
:1019A000FB813B681B8A9B019AB2FB891343FB8135
:1019B0007B68FA899A807B68BA899A833B689A68BF
:1019C0007B681A647B687A891A841437BD465DF88F
:1019D000047B7047000001400004014080B485B0E2
:1019E00000AF78600B467B800023FB817B689B8B7C
:1019F000FB81FB8923F00803FB81FA897B88134371
:101A0000FB817B68FA899A831437BD465DF8047BB5
:101A1000704700BF80B485B000AF78600B467B8014
:101A20000023FB817B689B8BFB81FB8923F4006394
:101A3000FB817B881B029AB2FB891343FB817B6885
:101A4000FA899A831437BD465DF8047B704700BF5E
:101A500025640A00737464696F2E633A20696E63AB
:101A60007265617365204D41585F535452494E472A
:081A70005F53495A450A0D00BD
:101A7800A4010000A401000000000000010203040A
:101A88000102030406070809000000000000000026
:101A9800010000000000000000000000000000003D
:101AA800000000000000000000000000000000002E
:101AB800000000000000000000000000000000001E
:101AC800000000000000000000000000000000000E
:101AD80000000000000000000000000000000000FE
:081EB8001800002000000000EA
:0400000508000000EF
:00000001FF
